{
  "_format": "hh-sol-artifact-1",
  "contractName": "PostPumpToken",
  "sourceName": "contracts/PostPumpToken.sol",
  "abi": [
    {
      "inputs": [
        {
          "internalType": "string",
          "name": "name",
          "type": "string"
        },
        {
          "internalType": "string",
          "name": "symbol",
          "type": "string"
        }
      ],
      "stateMutability": "nonpayable",
      "type": "constructor"
    },
    {
      "anonymous": false,
      "inputs": [
        {
          "indexed": true,
          "internalType": "address",
          "name": "owner",
          "type": "address"
        },
        {
          "indexed": true,
          "internalType": "address",
          "name": "spender",
          "type": "address"
        },
        {
          "indexed": false,
          "internalType": "uint256",
          "name": "value",
          "type": "uint256"
        }
      ],
      "name": "Approval",
      "type": "event"
    },
    {
      "anonymous": false,
      "inputs": [
        {
          "indexed": true,
          "internalType": "address",
          "name": "from",
          "type": "address"
        },
        {
          "indexed": true,
          "internalType": "address",
          "name": "to",
          "type": "address"
        },
        {
          "indexed": false,
          "internalType": "uint256",
          "name": "value",
          "type": "uint256"
        }
      ],
      "name": "Transfer",
      "type": "event"
    },
    {
      "inputs": [],
      "name": "INITIAL_SUPPLY",
      "outputs": [
        {
          "internalType": "uint256",
          "name": "",
          "type": "uint256"
        }
      ],
      "stateMutability": "view",
      "type": "function"
    },
    {
      "inputs": [
        {
          "internalType": "address",
          "name": "owner",
          "type": "address"
        },
        {
          "internalType": "address",
          "name": "spender",
          "type": "address"
        }
      ],
      "name": "allowance",
      "outputs": [
        {
          "internalType": "uint256",
          "name": "",
          "type": "uint256"
        }
      ],
      "stateMutability": "view",
      "type": "function"
    },
    {
      "inputs": [
        {
          "internalType": "address",
          "name": "spender",
          "type": "address"
        },
        {
          "internalType": "uint256",
          "name": "amount",
          "type": "uint256"
        }
      ],
      "name": "approve",
      "outputs": [
        {
          "internalType": "bool",
          "name": "",
          "type": "bool"
        }
      ],
      "stateMutability": "nonpayable",
      "type": "function"
    },
    {
      "inputs": [
        {
          "internalType": "address",
          "name": "account",
          "type": "address"
        }
      ],
      "name": "balanceOf",
      "outputs": [
        {
          "internalType": "uint256",
          "name": "",
          "type": "uint256"
        }
      ],
      "stateMutability": "view",
      "type": "function"
    },
    {
      "inputs": [],
      "name": "decimals",
      "outputs": [
        {
          "internalType": "uint8",
          "name": "",
          "type": "uint8"
        }
      ],
      "stateMutability": "view",
      "type": "function"
    },
    {
      "inputs": [
        {
          "internalType": "address",
          "name": "spender",
          "type": "address"
        },
        {
          "internalType": "uint256",
          "name": "subtractedValue",
          "type": "uint256"
        }
      ],
      "name": "decreaseAllowance",
      "outputs": [
        {
          "internalType": "bool",
          "name": "",
          "type": "bool"
        }
      ],
      "stateMutability": "nonpayable",
      "type": "function"
    },
    {
      "inputs": [
        {
          "internalType": "address",
          "name": "spender",
          "type": "address"
        },
        {
          "internalType": "uint256",
          "name": "addedValue",
          "type": "uint256"
        }
      ],
      "name": "increaseAllowance",
      "outputs": [
        {
          "internalType": "bool",
          "name": "",
          "type": "bool"
        }
      ],
      "stateMutability": "nonpayable",
      "type": "function"
    },
    {
      "inputs": [
        {
          "internalType": "address",
          "name": "to",
          "type": "address"
        },
        {
          "internalType": "uint256",
          "name": "amount",
          "type": "uint256"
        }
      ],
      "name": "mint",
      "outputs": [],
      "stateMutability": "nonpayable",
      "type": "function"
    },
    {
      "inputs": [],
      "name": "name",
      "outputs": [
        {
          "internalType": "string",
          "name": "",
          "type": "string"
        }
      ],
      "stateMutability": "view",
      "type": "function"
    },
    {
      "inputs": [],
      "name": "owner",
      "outputs": [
        {
          "internalType": "address",
          "name": "",
          "type": "address"
        }
      ],
      "stateMutability": "view",
      "type": "function"
    },
    {
      "inputs": [],
      "name": "symbol",
      "outputs": [
        {
          "internalType": "string",
          "name": "",
          "type": "string"
        }
      ],
      "stateMutability": "view",
      "type": "function"
    },
    {
      "inputs": [],
      "name": "totalSupply",
      "outputs": [
        {
          "internalType": "uint256",
          "name": "",
          "type": "uint256"
        }
      ],
      "stateMutability": "view",
      "type": "function"
    },
    {
      "inputs": [
        {
          "internalType": "address",
          "name": "to",
          "type": "address"
        },
        {
          "internalType": "uint256",
          "name": "amount",
          "type": "uint256"
        }
      ],
      "name": "transfer",
      "outputs": [
        {
          "internalType": "bool",
          "name": "",
          "type": "bool"
        }
      ],
      "stateMutability": "nonpayable",
      "type": "function"
    },
    {
      "inputs": [
        {
          "internalType": "address",
          "name": "from",
          "type": "address"
        },
        {
          "internalType": "address",
          "name": "to",
          "type": "address"
        },
        {
          "internalType": "uint256",
          "name": "amount",
          "type": "uint256"
        }
      ],
      "name": "transferFrom",
      "outputs": [
        {
          "internalType": "bool",
          "name": "",
          "type": "bool"
        }
      ],
      "stateMutability": "nonpayable",
      "type": "function"
    }
  ],
  "bytecode": "0x60806040523480156200001157600080fd5b5060405162000efc38038062000efc833981016040819052620000349162000219565b8181600362000044838262000311565b50600462000053828262000311565b5050600580546001600160a01b0319163390811790915562000081915069d3c21bcecceda100000062000089565b505062000405565b6001600160a01b038216620000e45760405162461bcd60e51b815260206004820152601f60248201527f45524332303a206d696e7420746f20746865207a65726f206164647265737300604482015260640160405180910390fd5b8060026000828254620000f89190620003dd565b90915550506001600160a01b038216600081815260208181526040808320805486019055518481527fddf252ad1be2c89b69c2b068fc378daa952ba7f163c4a11628f55a4df523b3ef910160405180910390a35050565b505050565b634e487b7160e01b600052604160045260246000fd5b600082601f8301126200017c57600080fd5b81516001600160401b038082111562000199576200019962000154565b604051601f8301601f19908116603f01168101908282118183101715620001c457620001c462000154565b81604052838152602092508683858801011115620001e157600080fd5b600091505b83821015620002055785820183015181830184015290820190620001e6565b600093810190920192909252949350505050565b600080604083850312156200022d57600080fd5b82516001600160401b03808211156200024557600080fd5b62000253868387016200016a565b935060208501519150808211156200026a57600080fd5b5062000279858286016200016a565b9150509250929050565b600181811c908216806200029857607f821691505b602082108103620002b957634e487b7160e01b600052602260045260246000fd5b50919050565b601f8211156200014f57600081815260208120601f850160051c81016020861015620002e85750805b601f850160051c820191505b818110156200030957828155600101620002f4565b505050505050565b81516001600160401b038111156200032d576200032d62000154565b62000345816200033e845462000283565b84620002bf565b602080601f8311600181146200037d5760008415620003645750858301515b600019600386901b1c1916600185901b17855562000309565b600085815260208120601f198616915b82811015620003ae578886015182559484019460019091019084016200038d565b5085821015620003cd5787850151600019600388901b60f8161c191681555b5050505050600190811b01905550565b80820180821115620003ff57634e487b7160e01b600052601160045260246000fd5b92915050565b610ae780620004156000396000f3fe608060405234801561001057600080fd5b50600436106100ea5760003560e01c806340c10f191161008c57806395d89b411161006657806395d89b41146101f1578063a457c2d7146101f9578063a9059cbb1461020c578063dd62ed3e1461021f57600080fd5b806340c10f191461018857806370a082311461019d5780638da5cb5b146101c657600080fd5b806323b872dd116100c857806323b872dd146101425780632ff2e9dc14610155578063313ce56714610166578063395093511461017557600080fd5b806306fdde03146100ef578063095ea7b31461010d57806318160ddd14610130575b600080fd5b6100f7610258565b6040516101049190610931565b60405180910390f35b61012061011b36600461099b565b6102ea565b6040519015158152602001610104565b6002545b604051908152602001610104565b6101206101503660046109c5565b610304565b61013469d3c21bcecceda100000081565b60405160128152602001610104565b61012061018336600461099b565b610328565b61019b61019636600461099b565b610367565b005b6101346101ab366004610a01565b6001600160a01b031660009081526020819052604090205490565b6005546101d9906001600160a01b031681565b6040516001600160a01b039091168152602001610104565b6100f76103d4565b61012061020736600461099b565b6103e3565b61012061021a36600461099b565b61048d565b61013461022d366004610a23565b6001600160a01b03918216600090815260016020908152604080832093909416825291909152205490565b60606003805461026790610a56565b80601f016020809104026020016040519081016040528092919081815260200182805461029390610a56565b80156102e05780601f106102b5576101008083540402835291602001916102e0565b820191906000526020600020905b8154815290600101906020018083116102c357829003601f168201915b5050505050905090565b6000336102f881858561049b565b60019150505b92915050565b6000336103128582856105f3565b61031d858585610685565b506001949350505050565b3360008181526001602090815260408083206001600160a01b03871684529091528120549091906102f89082908690610362908790610a90565b61049b565b6005546001600160a01b031633146103c65760405162461bcd60e51b815260206004820152601360248201527f4f6e6c79206f776e65722063616e206d696e740000000000000000000000000060448201526064015b60405180910390fd5b6103d08282610872565b5050565b60606004805461026790610a56565b3360008181526001602090815260408083206001600160a01b0387168452909152812054909190838110156104805760405162461bcd60e51b815260206004820152602560248201527f45524332303a2064656372656173656420616c6c6f77616e63652062656c6f7760448201527f207a65726f00000000000000000000000000000000000000000000000000000060648201526084016103bd565b61031d828686840361049b565b6000336102f8818585610685565b6001600160a01b0383166105165760405162461bcd60e51b8152602060048201526024808201527f45524332303a20617070726f76652066726f6d20746865207a65726f2061646460448201527f726573730000000000000000000000000000000000000000000000000000000060648201526084016103bd565b6001600160a01b0382166105925760405162461bcd60e51b815260206004820152602260248201527f45524332303a20617070726f766520746f20746865207a65726f20616464726560448201527f737300000000000000000000000000000000000000000000000000000000000060648201526084016103bd565b6001600160a01b0383811660008181526001602090815260408083209487168084529482529182902085905590518481527f8c5be1e5ebec7d5bd14f71427d1e84f3dd0314c0f7b2291e5b200ac8c7c3b925910160405180910390a3505050565b6001600160a01b03838116600090815260016020908152604080832093861683529290522054600019811461067f57818110156106725760405162461bcd60e51b815260206004820152601d60248201527f45524332303a20696e73756666696369656e7420616c6c6f77616e636500000060448201526064016103bd565b61067f848484840361049b565b50505050565b6001600160a01b0383166107015760405162461bcd60e51b815260206004820152602560248201527f45524332303a207472616e736665722066726f6d20746865207a65726f20616460448201527f647265737300000000000000000000000000000000000000000000000000000060648201526084016103bd565b6001600160a01b03821661077d5760405162461bcd60e51b815260206004820152602360248201527f45524332303a207472616e7366657220746f20746865207a65726f206164647260448201527f657373000000000000000000000000000000000000000000000000000000000060648201526084016103bd565b6001600160a01b0383166000908152602081905260409020548181101561080c5760405162461bcd60e51b815260206004820152602660248201527f45524332303a207472616e7366657220616d6f756e742065786365656473206260448201527f616c616e6365000000000000000000000000000000000000000000000000000060648201526084016103bd565b6001600160a01b03848116600081815260208181526040808320878703905593871680835291849020805487019055925185815290927fddf252ad1be2c89b69c2b068fc378daa952ba7f163c4a11628f55a4df523b3ef910160405180910390a361067f565b6001600160a01b0382166108c85760405162461bcd60e51b815260206004820152601f60248201527f45524332303a206d696e7420746f20746865207a65726f20616464726573730060448201526064016103bd565b80600260008282546108da9190610a90565b90915550506001600160a01b038216600081815260208181526040808320805486019055518481527fddf252ad1be2c89b69c2b068fc378daa952ba7f163c4a11628f55a4df523b3ef910160405180910390a35050565b600060208083528351808285015260005b8181101561095e57858101830151858201604001528201610942565b506000604082860101526040601f19601f8301168501019250505092915050565b80356001600160a01b038116811461099657600080fd5b919050565b600080604083850312156109ae57600080fd5b6109b78361097f565b946020939093013593505050565b6000806000606084860312156109da57600080fd5b6109e38461097f565b92506109f16020850161097f565b9150604084013590509250925092565b600060208284031215610a1357600080fd5b610a1c8261097f565b9392505050565b60008060408385031215610a3657600080fd5b610a3f8361097f565b9150610a4d6020840161097f565b90509250929050565b600181811c90821680610a6a57607f821691505b602082108103610a8a57634e487b7160e01b600052602260045260246000fd5b50919050565b808201808211156102fe57634e487b7160e01b600052601160045260246000fdfea2646970667358221220234a387cfeeecae5421860eef677ea3f6f8b69453557a712613010ab3964561064736f6c63430008140033",
  "linkReferences": {},
  "deployedLinkReferences": {}
}